:100000000C9462000C948A000C948A000C948A0070
:100010000C948A000C948A000C948A000C948A0038
:100020000C948A000C948A000C948A000C948A0028
:100030000C948A000C948A000C948A000C948A0018
:100040000C94FC000C948A000C948A000C948A0096
:100050000C948A000C948A000C948A000C948A00F8
:100060000C948A000C948A000000000024002700F1
:100070002A0000000000250028002B0000000000DE
:1000800023002600290004040404040404040202DA
:100090000202020203030303030301020408102007
:1000A0004080010204081020010204081020000012
:1000B0000007000201000003040600000000000029
:1000C0000000DB0011241FBECFEFD8E0DEBFCDBFA4
:1000D00011E0A0E0B1E0E4EDF4E002C005900D9283
:1000E000A030B107D9F711E0A0E0B1E001C01D9246
:1000F000AF30B107E1F710E0C4ECD0E004C02297C4
:10010000FE010E946402C23CD107C9F70E94F500BB
:100110000C9468020C940000CF93DF93EC018A8169
:1001200080FF02C0826001C08D7F8A8388810E9427
:100130001302298130E04A818217930711F44E7F20
:1001400001C041604A834A81242F30E0C90195955E
:1001500087958227932780FF02C0446001C04B7FB0
:100160004A838A818170DF91CF910895FC0181E0FB
:100170008183808161E00E94C60108951F93CF931F
:10018000DF93EC01862F142F688360E00E94A601A4
:10019000112311F4198203C0CE010E94B6001A8205
:1001A0008981882319F481E08A8301C01A82DF9152
:1001B000CF911F91089580E091E06CE041E00E94B2
:1001C000BE00089580E091E00E948C00882319F021
:1001D0008DE061E002C08DE060E00E94C6010895FC
:1001E0008DE061E00E94A60108950E946C010E94CA
:1001F000F0000E94E200FDCF1F920F920FB60F9207
:1002000011242F938F939F93AF93BF9380910301FA
:1002100090910401A0910501B09106010196A11DE4
:10022000B11D8093030190930401A0930501B09345
:1002300006018091070190910801A0910901B091F8
:100240000A018050904CAF4FBF4F809307019093AD
:100250000801A0930901B0930A0127C0809107010A
:1002600090910801A0910901B0910A0180589E4324
:10027000A040B0408093070190930801A09309012A
:10028000B0930A0180910B0190910C01A0910D0196
:10029000B0910E010196A11DB11D80930B019093A9
:1002A0000C01A0930D01B0930E0180910701909174
:1002B0000801A0910901B0910A0181589E43A04014
:1002C000B04060F6BF91AF919F918F912F910F90A9
:1002D0000FBE0F901F901895789484B5826084BDEE
:1002E00084B5816084BD85B5826085BD85B581603A
:1002F00085BDEEE6F0E0808181608083E1E8F0E09A
:10030000808182608083808181608083E0E8F0E08A
:10031000808181608083E1EBF0E080818460808374
:10032000E0EBF0E0808181608083EAE7F0E08081AB
:10033000846080838081826080838081816080830B
:100340008081806880831092C1000895282F30E05A
:10035000C90186569F4FFC0194912A573F4FF901DE
:100360008491882391F0E82FF0E0EE0FFF1FE85909
:10037000FF4FA591B491662329F48C919095892320
:100380008C9308958C91892B8C930895482F50E07D
:10039000CA0182559F4FFC012491CA0186569F4F86
:1003A000FC0194914A575F4FFA0134913323D1F104
:1003B000222331F1233021F4809180008F7705C012
:1003C000243031F4809180008F7D8093800018C0AC
:1003D000213019F484B58F7704C0223021F484B51C
:1003E0008F7D84BD0DC0263021F48091B0008F77C1
:1003F00005C0273029F48091B0008F7D8093B00034
:10040000E32FF0E0EE0FFF1FEE58FF4FA591B491E0
:10041000662329F48C91909589238C9308958C916F
:10042000892B8C930895682F70E0CB0182559F4FE4
:10043000FC012491CB0186569F4FFC0144916A57E1
:100440007F4FFB019491992319F420E030E038C0EC
:10045000222331F1233021F4809180008F7705C071
:10046000243031F4809180008F7D8093800018C00B
:10047000213019F484B58F7704C0223021F484B57B
:100480008F7D84BD0DC0263021F48091B0008F7720
:1004900005C0273029F48091B0008F7D8093B00093
:1004A000892F90E0880F991F84589F4FFC01A591D8
:1004B000B4918C9120E030E0842311F021E030E011
:1004C000C9010895EE0FFF1F0590F491E02D0994E6
:0404D000F894FFCFCE
:00000001FF
