:100000000C94D7000C94F4000C94F4000C94F400BD
:100010000C94F4000C94F4000C94F4000C94F40090
:100020000C94F4000C94F4000C94F4000C94F40080
:100030000C94F4000C94F4000C94F4000C94F40070
:100040000C94A2060C94F4000C94F4000C94F400AC
:100050000C94F4000C94F4000C94F4000C94F40050
:100060000C94F4000C94F40000000000003F484899
:10007000483F7F494949363E414141227F41412223
:100080001C7F494949417F484848403E4149492EE3
:100090007F0808087F00417F4100060101017E7F43
:1000A000081422417F010101017F2010207F7F1071
:1000B00008047F3E4141413E7F484848303E41452B
:1000C000423D7F484C4A31314949494640407F4092
:1000D000407E0101017E7C0201027C7F0204027FDE
:1000E000631408146360100F106043454951613E6A
:1000F0004549513E0010207F004749494931424956
:100100005969460818287F0871494949463E4949B6
:1001100049064047485060364949493630494949BF
:100120003E7F4141417F000000007F4F49494979AE
:10013000494949497F780808087F794949494F7FEB
:100140004949494F404040407F7F4949497F79496B
:1001500049497F00000000240027002A0000000019
:1001600000250028002B00000000002300260029A5
:100170000004040404040404040202020202020350
:10018000030303030301020408102040800102045A
:1001900008102001020408102000000007000201DE
:1001A000000003040600000000000000000011240D
:1001B0001FBECFEFD8E0DEBFCDBF11E0A0E0B1E0C1
:1001C000ECEBF1E102C005900D92A630B107D9F732
:1001D00011E0A6E0B1E001C01D92A237B107E1F73E
:1001E0000E949B060C94DC080C940000A0E0B0E098
:1001F000ECEFF0E00C94AD08EC01A880B980CA8067
:10020000DB80A114B104C104D10441F484E2A82E1E
:1002100089EDB82E8BE5C82E87E0D82EC601B50132
:100220002DE133EF41E050E00E94680827EA31E415
:1002300040E050E00E9449087B018C01C601B501F5
:100240002DE133EF41E050E00E946808CA01B90196
:100250002CEE34EF4FEF5FEF0E9449086E0D7F1DCB
:10026000801F911F97FF04C06150704080409048EC
:10027000688379838A839B839B01AC015F77B90193
:10028000CA01CDB7DEB7EAE00C94C9080E94F600B7
:10029000089580E091E00E94F600089560930001C7
:1002A00070930101809302019093030108951F93BD
:1002B000CF93DF93162FC82FD0E016C08BE060E0FD
:1002C0000E94B407812F90E08C239D23892B19F085
:1002D0008AE061E002C08AE060E00E94B4078BE03F
:1002E00061E00E94B4071695112341F7DF91CF9189
:1002F0001F91089561E00E94B407089560E00E9494
:10030000B40708951F93182F8CE00E947E0184E0AB
:1003100064E00E945701812F60E80E94570180E04D
:1003200061E00E9457018CE00E947A011F910895BC
:100330001F938CE00E947E0185E064E00E945701DB
:1003400080E060E40E94570110E080E060E80E94D5
:1003500057011F5F1033C9F78CE00E947A01E6E075
:10036000F1E0119281E0E636F807D9F71F91089580
:100370000F931F93182F062F8CE00E947E0185E0BB
:1003800064E00E945701812F60E40E945701802F92
:1003900068E00E9457018CE00E947A011F910F9142
:1003A0000895772767FD7095FB01E370F07028E0F2
:1003B00030E002C035952795EA95E2F77595679587
:1003C00075956795982F990F990F960FE92FFF272D
:1003D000E7FDF095442329F0EA5FFE4F8081822BF0
:1003E00005C0EA5FFE4F2095808182238083E92F3C
:1003F000FF27E7FDF095EA5FFE4F892F60810E949D
:10040000B80108952F923F925F926F927F928F92E0
:100410009F92AF92BF92CF92DF92EF92FF920F9393
:100420001F93CF93DF938AE069E041E00E94D101FE
:100430008CE06AE041E00E94D10189E06BE041E09C
:100440000E94D1018AE06BE041E00E94D1018DE081
:100450006BE041E00E94D1018EE06BE041E00E9440
:10046000D1018FE06BE041E00E94D10168EE73E0C2
:1004700080E090E00E941207E6E0F1E007C0808192
:10048000982F9F708295807F982B919321E0E6367C
:10049000F207A9F78824992410E8212E312CF4C002
:1004A000B6016B010894C11CD11CC60195958795B6
:1004B00095958795082FC60183709070A10102C0A1
:1004C000559547958A95E2F7C42FD0E0CB01019767
:1004D0009C01359527953595279583709070A101DE
:1004E00002C0559547958A95E2F7A42FB0E0CB015D
:1004F0009595879595958795B82ECB0183709070CB
:10050000A10102C0559547958A95E2F7E42EFF2494
:1005100030E0EB2DEA0DF0E0EA5FFE4F808190E0E5
:100520008E219F21892B09F031E040E0EB2DE70D72
:10053000F0E0EA5FFE4F808190E08E219F21892BC1
:1005400009F041E0532F540F40E0E22FEA0DF0E0B4
:10055000EA5FFE4F808190E08A239B23892B09F07C
:1005600041E0540F40E0E02FE60DF0E0EA5FFE4F7F
:10057000808190E08C239D23892B09F041E0540F6A
:1005800040E0E22FE60DF0E0EA5FFE4F808190E070
:100590008A239B23892B09F041E0540F40E0E02F90
:1005A000EA0DF0E0EA5FFE4F808190E08C239D230E
:1005B000892B09F041E0540F40E0270DE22FF0E0D5
:1005C000EA5FFE4F808190E08A239B23892B09F00C
:1005D00041E0352F340F20E0070DE02FF0E0EA5F17
:1005E000FE4F808190E08C239D23892B09F021E030
:1005F000832F820F823021F0833071F040E00DC0F4
:1006000040E0B60CEB2DF0E0EA5FFE4F808190E019
:100610008E219F21892B09F041E0812F0E94D10179
:100620005FE0C516D10409F03BCF87E1581619F4F5
:10063000E6E0F1E018C0152D612E660C660C512E17
:100640005394752C770C770C1150A12EAA0CAA0C80
:100650001F5F61E070E025CF8081982F9F708295A9
:10066000807F982B919321E0E636F207A9F768E2A4
:1006700070E080E090E00E9412070894811C911CB9
:100680003EE38316910411F011E0D6CF68EE73E0DB
:1006900080E090E00E941207DF91CF911F910F91AF
:1006A000FF90EF90DF90CF90BF90AF909F908F9092
:1006B0007F906F905F903F902F9008951F9310E070
:1006C000812F67E041E00E94D1011F5F1831C1F71F
:1006D00010E08CE0612F41E00E94D1011F5F1F30CC
:1006E000C1F71EEA812F0E9482016AEF70E080E06C
:1006F00090E00E94120711501F39A1F78FEA0E9463
:1007000082011F910895EF92FF920F931F93CF9351
:10071000DF930E94980101E011E0C0E0D0E08E2D4F
:100720006F2D41E00E94D10168E270E080E090E02E
:100730000E94120761E070E080E090E020E230E08B
:1007400040E050E00E9423086930B0F06A3011F4B4
:10075000019512C06B3011F411950EC06C3019F474
:1007600000E010E009C06D3019F401E011E004C0B0
:100770006E3011F40FEF1FEF8E2D6F2D40E00E94B1
:10078000D101E00EF10E87E18E1524F497E1E92EF8
:100790000FEF04C0E7FE02C0EE2401E08FE08F15EA
:1007A00024F48FE0F82E1FEF04C0F7FE02C0FF24F0
:1007B00011E02196CA3FD10509F0B1CFDF91CF9169
:1007C0001F910F91FF90EF9008950F931F9300E0FA
:1007D00016C0812F602F41E00E94D10164E170E0DA
:1007E00080E090E00E941207812F602F40E00E947D
:1007F000D1011F5F183169F70F5F003111F010E070
:10080000E8CF1F910F9108957F928F929F92AF92A0
:10081000BF92CF92DF92EF92FF920F931F93CF93ED
:10082000DF93E82E762E842F81548A3118F080527F
:100830008A3110F44F7109C0842F80538A3010F42C
:10084000455103C0403209F440E000E010E085E08B
:1008500048025001112420E4822E912CF801EA0D67
:10086000FB1DE859FF4FE491F72CC0E0D0E0CE2EFD
:10087000DD24C4010C2E02C0959587950A94E2F7F9
:100880008C219D21892B21F08E2D6F2D41E003C0FD
:100890008E2D6F2D40E00E94D1012196F394C73038
:1008A000D10539F70F5F1F4FE39405301105B1F6FD
:1008B000DF91CF911F910F91FF90EF90DF90CF903C
:1008C000BF90AF909F908F907F9008956F927F928E
:1008D0008F929F92AF92BF92CF92DF92EF92FF9250
:1008E0000F931F93602EE42FF0E0E81BF109F7FF50
:1008F00003C0F095E195FF4F5E2FE22FF0E0E61B7D
:10090000F109F7FF03C0F095E195FF4F3E2F48171F
:1009100028F099249394AA24A39404C099249A9427
:10092000AA24AA94261728F0BB24B394CC24C394F9
:1009300004C0BB24BA94CC24CA9453175CF0952FFE
:1009400057FD9F5FE92EE594D52E732E852E9924B1
:10095000CC240AC0932F37FD9F5FE92EE594D32E58
:10096000752E832EAA24BB24082F162FFF240EC019
:10097000802F612F462D0E94D101E70CED141CF051
:10098000ED18090D1B0D0A0D1C0DF3948F1484F73F
:100990001F910F91FF90EF90DF90CF90BF90AF909D
:1009A0009F908F907F906F9008950F931F930E9458
:1009B000980110E0212F215080E0622F47E100E0F4
:1009C0000E94660480E0612F41E40E94040486E0F6
:1009D000612F42E40E9404048CE0612F41E30E94F5
:1009E000040482E1612F43E30E94040468E270E0A2
:1009F00080E090E00E9412071F5F1930D9F668E886
:100A000073E180E090E00E9412071F910F9108951A
:100A10000F931F9310E0412F4A5F80E0612F212F39
:100A200001E00E9466041F5F1031A9F760EA7FE0D1
:100A300080E090E00E9412071F910F9108959F920D
:100A4000AF92BF92CF92DF92EF92FF920F931F93DC
:100A5000CF93DF930E94980160E070E080E090E027
:100A600027E130E040E050E00E942308D62E60E00D
:100A700070E080E090E027E130E040E050E00E944C
:100A80002308E62E60E070E080E090E02FE030E0A8
:100A900040E050E00E942308F62E60E070E080E025
:100AA00090E02FE030E040E050E00E942308162F55
:100AB00061E070E080E090E024E030E040E050E071
:100AC0000E942308962E61E070E080E090E024E030
:100AD00030E040E050E00E942308A62E61E070E084
:100AE00080E090E024E030E040E050E00E94230805
:100AF000B62E61E070E080E090E024E030E040E07D
:100B000050E00E942308C62EC0E0D0E08D2D6F2D4E
:100B10004E2D212F01E00E94660468E270E080E023
:100B200090E00E9412078D2D6F2D4E2D212F00E099
:100B30000E946604D90C87E18D157CF461E070E0B9
:100B400080E090E024E030E040E050E00E942308A4
:100B5000962E919457E1D52E0EC0D7FE0CC061E0C1
:100B600070E080E090E024E030E040E050E00E945F
:100B70002308962EDD24EA0C87E18E157CF461E0D3
:100B800070E080E090E024E030E040E050E00E943F
:100B90002308A62EA19447E1E42E0EC0E7FE0CC068
:100BA00061E070E080E090E024E030E040E050E080
:100BB0000E942308A62EEE24FB0C8FE08F157CF4F8
:100BC00061E070E080E090E023E030E040E050E061
:100BD0000E942308B62EB1943FE0F32E0EC0F7FE1C
:100BE0000CC061E070E080E090E023E030E040E0A5
:100BF00050E00E942308B62EFF241C0D103174F023
:100C000061E070E080E090E023E030E040E050E020
:100C10000E942308C62EC1941FE00EC017FF0CC00F
:100C200061E070E080E090E023E030E040E050E000
:100C30000E942308C62E10E02196CA3FD10509F074
:100C400065CFDF91CF911F910F91FF90EF90DF90D3
:100C5000CF90BF90AF909F9008950F930E94020293
:100C60000E94D5040E9408050E941F0568EE73E0EB
:100C700080E090E00E94120780E060E040E120E127
:100C800001E00E94660468EE73E080E090E00E945C
:100C900012070E945E0368EE73E080E090E00E941D
:100CA00012070E94E50368EE73E080E090E00E9486
:100CB00012070E94830368EE73E080E090E00E94D8
:100CC00012070F9108951F938CE061E00E94940732
:100CD0008CE061E00E94B4078BE061E00E94940721
:100CE0008AE061E00E94940780E00E9482018CE229
:100CF0000E94820184E10E94820181E00E948201BF
:100D000083E00E94820110E0812F60E00E94B80120
:100D10001F5F1036C9F768EE73E080E090E00E9434
:100D200012071F9108950E94630680E00E947607D3
:100D30000E94410808950E943C070E9493060E9469
:100D40002D06FDCF1F920F920FB60F9211242F93F5
:100D50008F939F93AF93BF938091660190916701AA
:100D6000A0916801B09169010196A11DB11D809308
:100D7000660190936701A0936801B0936901809127
:100D80006A0190916B01A0916C01B0916D0180504E
:100D9000904CAF4FBF4F80936A0190936B01A0932B
:100DA0006C01B0936D0127C080916A0190916B0135
:100DB000A0916C01B0916D0180589E43A040B0405D
:100DC00080936A0190936B01A0936C01B0936D01C5
:100DD00080916E0190916F01A0917001B0917101AD
:100DE0000196A11DB11D80936E0190936F01A09398
:100DF0007001B093710180916A0190916B01A09193
:100E00006C01B0916D0181589E43A040B04060F6E6
:100E1000BF91AF919F918F912F910F900FBE0F9027
:100E20001F901895EF92FF920F931F937B018C01F7
:100E30008FB7F89440916E0150916F0160917001ED
:100E4000709171018FBF2FB7F89480916E019091CE
:100E50006F01A0917001B09171012FBF841B950BA0
:100E6000A60BB70BE816F9060A071B0760F71F91D8
:100E70000F91FF90EF900895789484B5826084BDBF
:100E800084B5816084BD85B5826085BD85B581608E
:100E900085BDEEE6F0E0808181608083E1E8F0E0EE
:100EA000808182608083808181608083E0E8F0E0DF
:100EB000808181608083E1EBF0E0808184608083C9
:100EC000E0EBF0E0808181608083EAE7F0E0808100
:100ED0008460808380818260808380818160808360
:100EE0008081806880831092C100089587709091FE
:100EF00004019295990F990F907C982B90937C0008
:100F000080917A00806480937A0080917A0086FDD7
:100F1000FCCF2091780040917900942F80E030E060
:100F2000282B392BC9010895282F30E0C9018B5790
:100F30009E4FFC0194912F583E4FF90184918823D4
:100F400091F0E82FF0E0EE0FFF1FED5AFE4FA59154
:100F5000B491662329F48C91909589238C930895FC
:100F60008C91892B8C930895482F50E0CA018756A5
:100F70009E4FFC012491CA018B579E4FFC01949116
:100F80004F585E4FFA0134913323D1F1222331F1CE
:100F9000233021F4809180008F7705C0243031F414
:100FA000809180008F7D8093800018C0213019F4DB
:100FB00084B58F7704C0223021F484B58F7D84BD41
:100FC0000DC0263021F48091B0008F7705C0273006
:100FD00029F48091B0008F7D8093B000E32FF0E082
:100FE000EE0FFF1FE35AFE4FA591B491662329F43B
:100FF0008C91909589238C9308958C91892B8C9357
:101000000895EF92FF920F931F937B018C0161155E
:1010100071058105910529F420E030E040E050E0C1
:101020000BC00E944901A80197010E946808AC0109
:10103000CB01DA019C01AD01B901CA011F910F91E9
:10104000FF90EF900895EF92FF920F931F937B0113
:101050008C01621773078407950764F4261B370B0E
:10106000480B590BCA01B9010E940108E60EF71E90
:10107000081F191FB701C8011F910F91FF90EF9032
:101080000895009729F0BC0180E090E00E944E0195
:101090000895629FD001739FF001829FE00DF11DC2
:1010A000649FE00DF11D929FF00D839FF00D749FE2
:1010B000F00D659FF00D9927729FB00DE11DF91F8E
:1010C000639FB00DE11DF91FBD01CF0111240895EB
:1010D00097FB092E05260ED057FD04D014D00AD058
:1010E000001C38F450954095309521953F4F4F4F57
:1010F0005F4F0895F6F790958095709561957F4FB5
:101100008F4F9F4F0895A1E21A2EAA1BBB1BFD0112
:101110000DC0AA1FBB1FEE1FFF1FA217B307E407D6
:10112000F50720F0A21BB30BE40BF50B661F771F2E
:10113000881F991F1A9469F760957095809590950E
:101140009B01AC01BD01CF0108952F923F924F92B8
:101150005F926F927F928F929F92AF92BF92CF9247
:10116000DF92EF92FF920F931F93CF93DF93CDB750
:10117000DEB7CA1BDB0B0FB6F894DEBF0FBECDBFC8
:1011800009942A88398848885F846E847D848C8499
:101190009B84AA84B984C884DF80EE80FD800C81A2
:1011A0001B81AA81B981CE0FD11D0FB6F894DEBF85
:0C11B0000FBECDBFED010895F894FFCFF5
:0611BC000100000001002B
:00000001FF
